:020000040800F2
:10000000B007002029020008090500083304000891
:1000100005050008470300089F17000800000000BE
:10002000000000000000000000000000E90A0008D5
:100030004B0300080000000099050008D90C0008D7
:10004000430200084302000843020008430200087C
:10005000430200084302000843020008430200086C
:10006000430200084302000843020008430200085C
:10007000430200084302000843020008430200084C
:10008000430200084302000843020008430200083C
:10009000430200084302000843020008430200082C
:1000A000430200084302000843020008430200081C
:1000B000250F000843020008B5100008430200089D
:1000C00043020008430200084302000843020008FC
:1000D000430200084D1500084302000843020008CF
:1000E00043020008430200084302000843020008DC
:1000F00043020008430200084302000843020008CC
:1001000043020008430200084302000843020008BB
:10011000430200084302000885110008430200085A
:10012000430200084302000843020008430200089B
:10013000430200084302000843020008430200088B
:10014000430200084302000843020008430200087B
:10015000430200084302000843020008430200086B
:10016000430200084302000843020008430200085B
:10017000430200084302000843020008430200084B
:10018000430200084302000800F002F800F03CF8C7
:100190000AA090E8000C82448344AAF10107DA45E2
:1001A00001D100F031F8AFF2090EBAE80F0013F0F8
:1001B000010F18BFFB1A43F001031847D8180000BD
:1001C000F8180000103A24BF78C878C1FAD852074E
:1001D00024BF30C830C144BF04680C6070470000C1
:1001E0000023002400250026103A28BF78C1FBD840
:1001F000520728BF30C148BF0B6070471FB501F0E0
:1002000043FC1FBD10B510BD00F033F81146FFF7D9
:10021000F5FF01F0D7FB00F051F803B4FFF7F2FF50
:1002200003BC01F0BEFA00000948804709480047B6
:10023000FEE7FEE7FEE7FEE7FEE7FEE7FEE7FEE796
:10024000FEE7FEE704480549054A064B70470000F3
:10025000DD0C000889010008B0010020B007002073
:10026000B0030020B003002070477047704770470C
:100270007047754600F02CF8AE46050069465346B7
:1002800020F00700854618B020B5FFF7DBFFBDE87A
:1002900020404FF000064FF000074FF000084FF0ED
:1002A000000B21F00701AC46ACE8C009ACE8C0097E
:1002B000ACE8C009ACE8C0098D46704710B50446EB
:1002C000AFF300802046BDE81040FFF7A6BF000056
:1002D000004870474C01002010B54FF4E06000F07A
:1002E00051F9A82001F060FA01F094FA01F0AAFA9D
:1002F00001F0C0FA01F0D6FA01F0ECFA01F002FBCD
:1003000001F018FB01F02EFB01F044FB01F06AFA4A
:1003100053214FF0FF3000F0A7FD53214FF6FF703F
:1003200000F06AFE00F03AF900F08AF901F0DEF818
:100330004FF4E13000F06AFA00F07EF800F088FC3B
:1003400000F0C0FA10BD00BFFEE77047F0B50A46E6
:1003500000210023002400BF3DE0012505FA01F340
:10036000156805EA03049C4234D105684F00032652
:10037000BE40B543056015794E00B540066835436B
:1003800005601579012D02D01579022D16D18568E9
:100390004F000326BE40B543856055794E00B540F9
:1003A000866835438560456801268E40B5434560C3
:1003B000456896798E40B6B235434560C5684F00B2
:1003C0000326BE40B543C560D5794E00B540C6682A
:1003D0003543C560491C1029BFD3F0BDF0B50023DB
:1003E00000244D07ED0E02FA05F3CE1000F12005B2
:1003F00055F826504E07F70E0F26BE40B543CF10D6
:1004000000F1200646F82750CE1000F1200555F8DF
:10041000265045EA0304CE1000F1200545F8264099
:10042000F0BD418370470183704742694A40426191
:10043000704700BFFEE700001FB524A30FCB8DE877
:100440000F0000F05DFA00F0DFFB00F0EFFB9DF81D
:10045000000040F010008DF800009DF80010802092
:1004600000F03CF89DF80210822000F037F89DF86B
:100470000310832000F032F89DF80410842000F06F
:100480002DF89DF80510852000F028F89DF806103D
:10049000862000F023F89DF80710872000F01EF852
:1004A0009DF80810882000F019F89DF8091089209F
:1004B00000F014F89DF80A108A2000F00FF89DF85B
:1004C0000B108B2000F00AF81FBD00000000007F19
:1004D000C07FFF80000000000000000070B50546EE
:1004E0000C4604210648FFF79CFF284600F0C4FA9A
:1004F000204600F0C1FA04210148FFF794FF70BDC7
:100500000018024000BFFEE77047000070B50021F0
:1005100000230F22C4781CB3174C246804F4E06451
:10052000C4F5E064C4F30721C1F10404E3B20A4155
:1005300044789C40E1B28478144021430C07210E9A
:100540000E4C05786155047804F01F050124AC4079
:1005500005786D11AD0005F1E025C5F8004109E011
:10056000047804F01F050124AC40054D067876118F
:1005700045F8264070BD00000CED00E000E400E00E
:1005800080E100E002490143024A11607047000027
:100590000000FA050CED00E07047000000B58BB0DC
:1005A0000121082000F0AEF80121802000F09AF827
:1005B00002220B212048FFF711FF4FF40060099041
:1005C00002208DF8280003208DF8290000208DF8E6
:1005D0002A0001208DF82B0009A91748FFF7B6FE65
:1005E00040F24F10ADF818000020ADF81A0040F2AC
:1005F000E73007900020ADF8200006A90F4800F072
:1006000033FF6020ADF804000120ADF806000020A3
:10061000ADF8100001A9094800F098FE082107482C
:1006200000F0E6FE0121054800F0C4FD0121034869
:1006300000F0CFFD0BB000BD001C0240000C0040DC
:1006400000B58BB00121082000F05CF8012180206A
:1006500000F048F802220A212048FFF7BFFE4FF4BD
:100660008060099002208DF8280003208DF8290071
:1006700000208DF82A0001208DF82B0009A91748C9
:10068000FFF764FE40F24F10ADF818000020ADF8FF
:100690001A0040F2E73007900020ADF8200006A9CC
:1006A0000F4800F0E1FE6020ADF804000120ADF835
:1006B00006000020ADF8100001A9094800F0F6FD81
:1006C0000821074800F039FE0121054800F072FDBD
:1006D0000121034800F07DFD0BB000BD001C02406D
:1006E000000C004029B1064A12680243044B1A600C
:1006F00004E0034A12688243014B1A60704700000D
:100700003038024029B1064A12680243044B1A608D
:1007100004E0034A12688243014B1A6070470000EC
:1007200040380240F0B500210022002402250026B6
:100730000223324F3F6807F00C0121B1042905D094
:10074000082937D105E02E4F076036E02D4F0760AE
:1007500033E02A4F3F1F3F68C7F38056274F3F1FA4
:100760003F6807F03F036EB1264FB7FBF3F7DFF8A2
:100770008CC0ACF1040CDCF800C0CCF3881C07FB87
:100780000CF40CE01E4FB7FBF3F7DFF870C0ACF1D0
:10079000040CDCF800C0CCF3881C07FB0CF4174FEA
:1007A0003F1F3F68C7F301477F1C7D00B4FBF5F78F
:1007B000076002E0124F076000BF00BF0F4F3F68A5
:1007C00007F0F0010909104F7A5C0768D7404760CD
:1007D0000A4F3F6807F4E051890A0B4F7A5C47687B
:1007E000D7408760054F3F6807F46041490B064FCB
:1007F0007A5C4768D740C760F0BD00000838024007
:100800000024F40000127A000A00002010B588B01D
:10081000044601210820FFF765FF01218804FFF746
:1008200071FF072208212548FFF7D8FD072209217B
:100830002248FFF7D3FD4FF44070069002208DF858
:100840001C008DF81D0000208DF81E0001208DF881
:100850001F0006A91948FFF779FD02940020ADF8A2
:100860000C00ADF80E00ADF81000ADF814000C202F
:10087000ADF8120002A9124800F01EFF0121104835
:1008800000F0B1FE40210E4800F0A4FE012240F22B
:1008900025510B4800F0EAFE27208DF804000120C6
:1008A0008DF8050003208DF8060001208DF8070063
:1008B00001A8FFF72BFE08B010BD0000000C02409D
:1008C000004800401CB501210220FFF70BFF40202B
:1008D000009001208DF8040000208DF80600032010
:1008E0008DF8050002208DF8070069460348FFF7E0
:1008F0002DFD40210148FFF794FD1CBD000402407E
:1009000000B587B001210220FFF7ECFE0121402055
:10091000FFF7E8FE01218020FFF7E4FE01218803B4
:10092000FFF7F0FE05220F213448FFF757FD05229F
:100930000E213248FFF752FD05220D212F48FFF707
:100940004DFD4FF46040059002208DF81800002006
:100950008DF81A008DF81B0002208DF8190005A9EA
:100960002648FFF7F3FC0C20059001208DF81800B5
:1009700000208DF81A008DF81B0002208DF8190058
:1009800005A91F48FFF7E2FC4FF440411B48FFF761
:100990004AFD4FF400511948FFF743FD0421184860
:1009A000FFF741FD08211648FFF73DFD0020ADF897
:1009B00000000120ADF808000020ADF806004FF45B
:1009C0008270ADF802000020ADF804004FF4007012
:1009D000ADF80A001020ADF80C000020ADF80E00B4
:1009E0000720ADF810006946064800F027F80121FD
:1009F000044800F009F807B000BD00000004024000
:100A0000001802400038004021B1028842F0400244
:100A1000028004E002884FF6BF731A4002807047DC
:100A20000246002013890B400BB1012000E000209A
:100A300070470146888970478181704710B5002250
:100A4000028802F441520B884C8823438C8823434C
:100A5000CC8823430C8923434C8923438C8923432B
:100A6000CC8923431A430280838B4FF2FF742340C7
:100A700083830B8A038210BD10B504464FF42040D7
:100A80001749086007E016490868411E144A1160BA
:100A900008B9012010BD02211248FFF7C1FF00284C
:100AA000F1D021460F48FFF7C7FF4FF420400C4913
:100AB000086007E00A490868411E094A116008B940
:100AC0000120E7E701210748FFF7AAFF0028F1D03E
:100AD0000448FFF7AEFF0348FFF7ABFF0020D9E75C
:100AE00020000020003800407047000070B5044628
:100AF0000D460BE014F8011B074800F04CFE00BF48
:100B00008021054800F07BFD0128F9D1281EA5F1C0
:100B10000105EFD170BD0000004800400CB5002079
:100B2000019000903448006840F4803032490860F9
:100B300000BF3148006800F4003000900198401C6C
:100B40000190009818B90198B0F5A04FF1D12A484A
:100B5000006800F4003010B10120009001E0002096
:100B600000900098012846D123484030006840F0AA
:100B700080502149403108602048006840F44040DE
:100B80001E4908601C48083000681B49083108608D
:100B90000846006840F4004008600846006840F4D9
:100BA000A05008601648091F0860081F006840F040
:100BB0008070091F086000BF0F48006800F00070D7
:100BC0000028F9D040F205700E4908600A48083044
:100BD000006820F0030008490831086008460068F2
:100BE00040F00200086000BF03480830006800F0D1
:100BF0000C000828F8D10CBD0038024000700040FD
:100C000008544007003C02401CB54FF400700090AF
:100C100002208DF8050000208DF804006946024886
:100C2000FFF794FB1CBD0000001C02401CB54FF4F4
:100C30008070009002208DF8050000208DF80400DF
:100C400069460248FFF782FB1CBD0000001C024001
:100C50001CB501214020FFF745FD01212020FFF7B1
:100C600041FD0320009001208DF8040000208DF844
:100C7000060003208DF8050002208DF80700694664
:100C80000948FFF763FB4FF40040009069460748AE
:100C9000FFF75CFB4FF400410448FFF7C2FB032160
:100CA0000148FFF7BEFB1CBD0018024000140240C3
:100CB000042808D14FF0E021096941F004014FF008
:100CC000E022116107E04FF0E021096921F0040101
:100CD0004FF0E022116170477047000010B51548D1
:100CE000006840F47000134908601348006840F041
:100CF00001001149086000200F49083108600E48C2
:100D000000680E4908400C4908600D48091D08603C
:100D1000081F006820F48020091F08600020064991
:100D20000C310860FFF7FAFE4FF00060014980398E
:100D3000086010BD88ED00E000380240FFFFF6FEBD
:100D400010300024F0B50C46154600210022068C18
:100D50004FF6FE773E400684018B028C4FF60C76F0
:100D600031407E1C06EA03162E4331434FF6F576DA
:100D7000324044F00106324301830284F0BDF0B5F5
:100D80000C461546002100220026078C4FF6EF7C0A
:100D900007EA0C070784018B028C4FF6FF7707EAFE
:100DA000041640F6FF4739404FF6FF7707EA03374E
:100DB00039434FF6FF7707EA052739434FF65F7748
:100DC0003A4046F010073A4301830284F0BDF0B583
:100DD0000C461546002100220026078C4FF6FF6CBA
:100DE00007EA0C070784818B028C4FF6FF7707EA2E
:100DF00004264FF60C7739404FF6FF7707EA0317C2
:100E00002F4339434FF2FF573A4046F480773A4335
:100E100081830284F0BDF0B50C4615460021002206
:100E20000026078C4EF6FF7C07EA0C070784818BAF
:100E3000028C4FF6FF7707EA043640F6FF47394049
:100E40004FF6FF7707EA052739434FF6FF7707EAA2
:100E50000337394345F6FF773A4046F480573A4323
:100E600081830284F0BD000030B587B004460D4692
:100E700001210846FFF746FC01210220FFF732FC62
:100E80004FF48060059002208DF8180003208DF843
:100E9000190000208DF81A0002208DF81B0005A90A
:100EA0001E48FFF753FA01220A211C48FFF796FA61
:100EB000ADF808500020ADF80A000394ADF810001A
:100EC00002A94FF0804000F0CFFA082014490880B2
:100ED00000204880012088800020C88008814FF0D1
:100EE000804000F0A2F901220921880700F0D4F91E
:100EF0000121880700F06DF91C208DF80400022004
:100F00008DF8050000208DF8060001208DF80700FF
:100F100001A8FFF7FBFA07B030BD00000004024053
:100F20003801002010B53248007800F08000002819
:100F300058D10121880700F067F9D0B12C4800781A
:100F400000F04000A8B12A48007800F03F003F2898
:100F50000AD12748007840F08000254908704FF0FA
:100F6000FF302449086004E021480078401C2049F3
:100F700008700821C80600F047F998B31C480078AB
:100F800000F0400088B11A48007840F0800018490D
:100F900008704FF0804000F02BF9164908600021DE
:100FA0004FF0804000F0C0F91CE0002010490870AC
:100FB000104908600E48007840F040000C49087065
:100FC00000214FF0804000F004F900214FF08040F4
:100FD00000F01BFA0221480700F0A6F9012188075A
:100FE00000F0F7F80921880700F0F0F810BD0000C4
:100FF000240000202800002030B587B004460D46AC
:1010000001210420FFF77EFB01210820FFF76AFB86
:101010004FF40050059002208DF8180003208DF841
:10102000190000208DF81A0002208DF81B0005A978
:101030001D48FFF78BF902220D211B48FFF7CEF95F
:10104000ADF808500020ADF80A000394ADF8100088
:1010500002A9164800F008FA04201549088000206B
:101060004880012088800020C88008810F4800F057
:10107000DCF8012205210D4800F00EF901210B4892
:1010800000F0A7F81E208DF8040002208DF805005E
:1010900000208DF8060001208DF8070001A8FFF759
:1010A00035FA07B030BD0000000C024000080040D7
:1010B0004201002010B53048007800F08000002880
:1010C00054D101212D4800F09FF8D0B12A48007872
:1010D00000F04000A8B12848007800F03F003F2809
:1010E0000AD12548007840F08000234908704FF667
:1010F000FF702349086004E01F480078401C1E4927
:10110000087004211D4800F07FF878B31A48007871
:1011100000F0400078B11848007840F0800016498F
:101120000870164800F061F815490860002113485E
:1011300000F0FAF81AE000200F4908701049086022
:101140000D48007840F040000B49087000210B4822
:1011500000F03FF80021094800F057F90221074844
:1011600000F0E2F80121054800F033F805210348BA
:1011700000F02CF810BD00002C00002000080040FA
:101180003000002010B50121084800F034F858B1B3
:101190000121064800F01AF80548006820B104480B
:1011A0000068401E0249086010BD000000100040A9
:1011B0001C00002021B1028842F08002028004E07D
:1011C00002884FF67F731A4002807047CA4302823A
:1011D000704721B1028842F00102028004E00288D7
:1011E0004FF6FE731A40028070470146886B7047C5
:1011F0000146C86B704702460020138A0B400BB1B2
:10120000012000E00020704730B502460020002396
:101210000024158A05EA0103958905EA010413B142
:101220000CB1012000E0002030BD70B505460C4631
:10123000208850B92389A28861882846FFF782FD5B
:10124000E188284600F0E3F825E0208804280AD148
:101250002389A28861882846FFF791FDE188284606
:1012600000F0DEF817E0208808280AD12389A28838
:1012700061882846FFF7ABFDE188284600F0DDF8DD
:1012800009E02389A28861882846FFF7C4FDE18828
:10129000284600F0DBF870BD1AB183890B438381C7
:1012A00002E083898B4383817047000070B500247E
:1012B00000220023058C4FF6FE7635400584028C13
:1012C0008388048B4FF68F752C40B51E2C400D88FB
:1012D0002C43751E2A408D892A434D882A43104D80
:1012E000A84202D00F4DA84213D14FF6F7752A40FD
:1012F000CD892A434FF6FB752A408D882A434FF645
:10130000FF652B404FF6FF552B400D8A2B434D8A2E
:101310002B43838004838D684563028470BD000085
:1013200000000140000401400A460021018C4FF6F4
:10133000FD7319401143018470470A460021018B57
:101340004FF6F773194011430183704770B50024BD
:1013500000220023058C4FF6EF7635400584028C81
:101360008388048B48F6FF752C404FF6FF452C40D0
:101370000D884FF6FF7606EA05252C434FF6DF75FC
:101380002A408D8906EA05152A434D8806EA051587
:101390002A43154DA84202D0144DA8421DD14FF644
:1013A0007F752A40CD894FF6FF7606EA05152A4358
:1013B0004FF6BF752A408D8806EA05152A434FF679
:1013C000FF352B404FF2FF752B400D8A06EA85054D
:1013D0002B434D8A06EA85052B43838004838D6861
:1013E0008563028470BD00000000014000040140DC
:1013F0000A460021018B4FF2FF7319404FF6FF732D
:1014000003EA022319430183704741627047028B4C
:101410004FF6F3731A400283028B0A43028370472C
:10142000028B4FF2FF331A400283028B4FF6FF7399
:1014300003EA01231A4302837047828B4FF6F3734A
:101440001A408283828B0A4382837047828B4FF2D9
:10145000FF331A408283828B4FF6FF7303EA012326
:101460001A4382837047000000220288184B98427A
:101470000ED0184B98420BD0B0F1804F08D0164BCD
:10148000984205D0154B984202D0154B984204D192
:101490004FF68F731A404B881A43124B984207D06D
:1014A000114B984204D04FF6FF431A400B891A4360
:1014B00002804B68C3620B880385054B984202D0BB
:1014C000044B984201D18B7A0386012383827047B3
:1014D00000000140000401400004004000080040FA
:1014E000000C004000100040001400401FB5012116
:1014F0001020FFF707F940F24730ADF80000002058
:10150000ADF8020040F2E73001900020ADF808008D
:1015100069460D48FFF7A8FF36208DF80C00032020
:101520008DF80D008DF80E0001208DF80F0003A836
:10153000FEF7ECFF012211460348FFF7ADFE012143
:101540000148FFF746FE1FBD0010004010B540F2F5
:1015500025511D4800F060F810B31B4800F016F943
:10156000C4B21A48008800F40040C8B9174800887F
:1015700000F4804060B10A2C03D000201349088099
:1015800020E01248008840F400401049088019E02B
:101590000D2C06D10D48008840F480400B4908808E
:1015A00010E00A480088C0F30D0009490C540748B0
:1015B0000088401C0549088008460088C72801DDCE
:1015C0000020088010BD000000100140080000202D
:1015D0007000002001F40072B2F5007F00D100BF5E
:1015E000CA430280704721B1828942F4005282814D
:1015F00004E082894DF6FF731A40828170470246EB
:101600000020B1F5007F00D100BF13880B400BB163
:10161000012000E00020704770B50246002400233E
:101620000025002040F66A16B14200D100BFC1F388
:10163000421501F01F03012606FA03F3012D02D122
:101640009689334006E0022D02D1168A334001E02C
:10165000968A33400C12012606FA04F416883440A8
:1016600013B10CB1012000E0002070BDF0B50346BD
:10167000002400260025002040F66A17B94200D158
:1016800000BF1846C1F3421401F01F06012707FAF4
:1016900006F5012C01D10C3004E0022C01D11030F0
:1016A00000E014301AB107682F43076002E00768B2
:1016B000AF430760F0BD00002DE9FF4705460E4629
:1016C0000024A14600BFA046B08900B100BF2C8A0B
:1016D00024F44054F08804432C82AC8941F20C601D
:1016E0008443B08831890843718908430443AC813D
:1016F000AC8A24F44074B0890443AC826846FFF796
:1017000011F82048854202D01F48854202D1DDF8F9
:101710000C9001E0DDF80890A88900F4004040B189
:1017200009EBC90000EB091031684900B0FBF1F783
:1017300007E009EBC90000EB091031688900B0FB34
:10174000F1F76420B7FBF0F004012009642101FBEC
:101750001078A88900F4004040B1322000EBC800A6
:10176000B0FBF1F000F00700044308E0322000EB8A
:1017700008106421B0FBF1F000F00F0004432C814D
:10178000BDE8FF8700100140001401400146888831
:10179000C0F308007047C1F308028280704700BFA1
:1017A000FEE700BF7047000010B504466FF004006C
:1017B000FFF77EFAE11704EB5171C1F3C701074A45
:1017C00011701046007800EB4001C1EBC0104FF6DD
:1017D000FF7101EAC0000249088010BD000000202E
:1017E000020000201CB501210820FEF77BFF02202B
:1017F000009000208DF8040003208DF805000120E2
:101800008DF8070069460248FEF7A0FD1CBD0000E8
:10181000002002401CB501210820FEF763FF0420D0
:10182000009000208DF8040003208DF805000120B1
:101830008DF8070069460248FEF788FD1CBD0000D0
:10184000001002401CB501210820FEF74BFF40208C
:10185000009000208DF8040003208DF80500012081
:101860008DF8070069460248FEF770FD1CBD0000B8
:10187000002002401CB501210820FEF733FF08209C
:10188000009000208DF8040003208DF80500012051
:101890008DF8070069460248FEF758FD1CBD0000A0
:1018A000001002401CB501210820FEF71BFF10208C
:1018B000009000208DF8040003208DF80500012021
:1018C0008DF8070069460248FEF740FD1CBD000088
:1018D000001002401CB501210820FEF703FF802004
:1018E000009000208DF8040003208DF805000120F1
:1018F0008DF8070069460248FEF728FD1CBD000070
:10190000002002401CB501210820FEF7EBFE4FF439
:101910000040009000208DF8040003208DF80500A1
:1019200001208DF8070069460148FEF70FFD1CBD38
:10193000001C02401CB501210820FEF7D3FE012047
:10194000009000208DF8040003208DF80500012090
:101950008DF8070069460248FEF7F8FC1CBD000040
:10196000002002401CB501210820FEF7BBFE042028
:10197000009000208DF8040003208DF80500012060
:101980008DF8070069460248FEF7E0FC1CBD000028
:10199000002002401CB501210820FEF7A3FE08200C
:1019A000009000208DF8040003208DF80500012030
:1019B0008DF8070069460248FEF7C8FC1CBD000010
:1019C0000020024008B52AA000680090FEF784FCC1
:1019D0004CE02848006800F00F012748D0F80802C2
:1019E00061F31F10254908702348D0F8100200F059
:1019F0000F012148D0F80C0261F31F101F494870F5
:101A00001D48D0F83C0200F00F011B48D0F81C0222
:101A100061F31F10194988701748D0F8080200F0C8
:101A20000F011548D0F8000261F31F101349C87068
:101A30001148D0F8040200F00F010F48D0F80C0252
:101A400061F31F100D4908710D48006870B90A2034
:101A50000B49086040210B48FEF7E7FC022168466D
:101A6000FFF744F805210548FFF740F8B1E700000B
:101A7000A55A000018824142008041426A000020BD
:101A80001C000020000402404FF04070E1EE100AFC
:101A900070470000B41A0008000000207000000029
:101AA000C4010008241B000870000020400700004B
:101AB000E00100080000000000000000000000003D
:101AC00000000102030401020304060708090000E4
:101AD0000000000000A00000000000000000000066
:101AE00000000000000000000000000000000000F6
:101AF00000000000000000000000000000000000E6
:101B000000000000F301F3010000000000000000ED
:101B100000000000000000000000000000000000C5
:041B200000000000C1
:040000050800018965
:00000001FF
